:020000040800F2
:10000000000400204701000875010008790100087C
:100010007B0100087D0100087F010008000000004E
:100020000000000000000000000000008101000846
:100030008301000800000000850100088701000816
:1000400067010008670100086701000867010008F0
:1000500067010008670100086701000867010008E0
:1000600067010008670100086701000867010008D0
:1000700067010008670100086701000867010008C0
:1000800067010008670100086701000867010008B0
:1000900067010008670100086701000867010008A0
:1000A0006701000867010008670100086701000890
:1000B0006701000867010008670100086701000880
:1000C0006701000867010008670100086701000870
:1000D0006701000877010008670100086701000850
:1000E0006701000867010008670100086701000850
:1000F0006701000867010008670100086701000840
:10010000670100086701000867010008670100082F
:10011000670100086701000867010008670100081F
:10012000670100086701000867010008670100080F
:10013000DFF80CD001F01AFD0048004789010008E3
:1001400028020020704708488047084981F3088842
:1001500007480047FEE7FEE7FEE7FEE7FEE7FEE7AB
:10016000FEE7FEE7FEE7FEE7450100082802002063
:10017000310100087047FEE7FEE7FEE7FEE7FEE715
:10018000704770477047704701F0D0FC482000F07E
:1001900093FA01F0ADF84FF4FA7000F0A0FA00F015
:1001A00016F900BF01F036F8FCE70000F8B50121B0
:1001B000182001F0E2FA0121084601F0DEFA0121DF
:1001C000FE4801F097F90820ADF800001024FC4E1D
:1001D0008DF8034003258DF802506946304601F042
:1001E000FAF84FF40870ADF800008DF802508DF861
:1001F00003406946304601F0EEF81920ADF80000E2
:100200008DF802508DF803406946EE4801F0E3F89E
:10021000F8BD2DE9F0470824E94F054610374FF0A7
:100220002009264607F104082806484601D538600B
:1002300001E0C8F80000C8F80060012000F061FA91
:100240003E606806050E641E14F0FF04ECD1BDE8A4
:10025000F08702899207FCD581810189C907FCD00A
:100260008089C0B27047028822F0380202800129DA
:10027000018801D041F020010180018841F0400156
:1002800001807047F0B587B00121092001F075FAAF
:100290000121080301F071FA0121C84801F02AF98F
:1002A0000121084601F026F92820ADF800000324BA
:1002B0008DF802401820C24F8DF803006946384679
:1002C00001F089F81025ADF8005048208DF80300A2
:1002D0008DF802406946384601F07DF86E01ADF8B0
:1002E00000608DF802408DF803506946384601F0F1
:1002F00072F81920ADF800008DF802408DF8035017
:100300006946B04801F067F80020ADF80400ADF888
:1003100008004FF48271ADF806100221ADF80A1002
:10032000ADF810000121ADF81200ADF80C10072057
:10033000A54CADF81400ADF80E6001A9204601F0FF
:100340008FFA0121204601F00DFB07B0F0BD9C495A
:1003500000B514314FF400730B609A4A08215161C3
:1003600001469948FFF775FF95481030036000BDBE
:10037000934900B514314FF400730B60914A082182
:10038000116101469048FFF764FF8D48103003600B
:1003900000BD10B50446000AFFF7EAFFE0B2BDE871
:1003A0001040E5E710B50C46FFF7D1FF2046BDE849
:1003B0001040EEE770B5834C01256561642000F0C4
:1003C0008EF92561BDE87040322000F088B910B583
:1003D000FFF758FFFFF7EEFF1120FFF7B8FF0020EF
:1003E000FFF7C6FFCF20FFF7B2FF0020FFF7C0FFE7
:1003F000C120FFF7BDFF3020FFF7BAFFED20FFF768
:10040000A6FF6420FFF7B4FF0320FFF7B1FF12201F
:10041000FFF7AEFF8120FFF7ABFFE820FFF797FF64
:100420008520FFF7A5FF1120FFF7A2FF7820FFF737
:100430009FFFF620FFF78BFF0120FFF799FF302089
:10044000FFF796FF0020FFF793FFCB20FFF77FFF1A
:100450003920FFF78DFF2C20FFF78AFF0020FFF7E0
:1004600087FF3420FFF784FF0520FFF781FFF72087
:10047000FFF76DFF2020FFF77BFFEA20FFF767FF04
:100480000020FFF775FF0020FFF772FFC020FFF785
:100490005EFF2020FFF76CFFC120FFF758FF1120FF
:1004A000FFF766FFC520FFF752FF3120FFF760FF1F
:1004B0003C20FFF75DFFC720FFF749FFA920FFF7AA
:1004C00057FF3A20FFF743FF5520FFF751FF362033
:1004D000FFF73DFF4820FFF74BFFB120FFF737FF45
:1004E0000020FFF745FF1820FFF742FFB420FFF779
:1004F0002EFF0020FFF73CFF0020FFF739FFF2201E
:10050000FFF725FF0020FFF733FF2620FFF71FFF2F
:100510000120FFF72DFFE020FFF719FF0F20FFF765
:1005200027FF1720FFF724FF1420FFF721FF0920E2
:10053000FFF71EFF0C20FFF71BFF0620FFF718FF39
:100540004320FFF715FF7520FFF712FF3620FFF756
:100550000FFF0820FFF70CFF1320FFF709FF05200E
:10056000FFF706FF1020FFF703FF0B20FFF700FF48
:100570000820FFF7FDFEE120FFF7E9FE0020FFF76E
:10058000F7FE1F20FFF7F4FE2320FFF7F1FE032004
:10059000FFF7EEFE0E20FFF7EBFE0420FFF7E8FE6C
:1005A0003920FFF7E5FE2520FFF7E2FE4D20FFF79B
:1005B000DFFE0620FFF7DCFE0D2007E00002300022
:1005C000000C01400010014000300140FFF7D0FE58
:1005D0000B20FFF7CDFE3320FFF7CAFE3720FFF7D1
:1005E000C7FE0F20FFF7C4FE2920FFF7B0FE2F49FA
:1005F0001020086110BD30B504460D462A20FFF7D3
:10060000A6FE2046FFF7C5FE2B20FFF7A0FE2846DA
:10061000FFF7BFFEBDE830402C2098E6F0B5044659
:100620001D4616460F462A20FFF791FE2046FFF78B
:10063000B0FE3046FFF7ADFE2B20FFF788FE3846B0
:10064000FFF7A7FE2846FFF7A4FEBDE8F0402C20E8
:100650007DE610B51446FFF7CEFF2046BDE81040FA
:1006600097E6F0B50446002140F23F13EF2208461A
:10067000FFF7D4FF0E484FF4007606600B490820C0
:10068000086100230B4D4FF4963C270A3946284653
:10069000FFF7DFFDE1B22846FFF7DBFD5B1C63459A
:1006A000F4D30348001F0660F0BD000000100140B5
:1006B000140C0140003001404FF0E0210A6922F0A3
:1006C00004020A611849C00800EB40020870C2EB3E
:1006D000C0104FF6FF7202EAC0004880704712490E
:1006E000498848434FF0E021486100208861012299
:1006F0000A610A69D30701D0D203FAD5086188617B
:1007000070470949097848434FF0E02148610020CB
:10071000886101220A610A69D30701D0D203FAD5A0
:10072000086188617047000000000020C0F3451197
:10073000C20AC00200EB4110104480B270472DE99C
:10074000FF5F074614460E4600256042032101EB79
:10075000400858E006EB040907EB050B1FFA89F186
:100760001FFA8BF0039AFFF774FFA7EB050A1FFA35
:1007700089F11FFA8AF0039AFFF76BFFA6EB0409D1
:100780001FFA89F11FFA8BF0039AFFF762FF1FFA35
:1007900089F11FFA8AF0039AFFF75BFF06EB050960
:1007A00007EB040B1FFA89F11FFA8BF0039AFFF78E
:1007B00050FFA7EB040A1FFA89F11FFA8AF0039A87
:1007C000FFF747FFA6EB05091FFA89F11FFA8BF027
:1007D000039AFFF73EFF1FFA89F11FFA8AF0039A86
:1007E000FFF737FFB8F1000F04DA08EB850000F1DE
:1007F000060806E0291B08EB8100641E00F10A08C8
:10080000A4B26D1CADB2A542A4D3A54242D106EB61
:10081000040907EB05081FFA89F11FFA88F0039A0B
:10082000FFF717FF1FFA89F11FFA88F0039AFFF705
:1008300010FFA6EB04091FFA89F11FFA88F0039A4A
:10084000FFF707FF781B1FFA89F180B2039AFFF7C1
:1008500000FF06EB050907EB04081FFA89F11FFAF0
:1008600088F0039AFFF7F5FE3C1B1FFA89F1A0B24E
:10087000039AFFF7EEFE751BA9B21FFA88F0039AE0
:10088000FFF7E7FE039A04B0A9B2A0B2BDE8F05F9B
:10089000FFF7DFBEBDE8FF9F2DE9F84F1C46154668
:1008A0000E468046FFF7A7FEB5EB0805A4EB06044D
:1008B0004FF0FF3002D44FF0010B01E083466D4250
:1008C000002C02DB4FF0010901E081466442680020
:1008D0004FEA440A0090A54219DDAAEB050400275F
:1008E00011E0314640460A9AFFF7B3FE002C04DBC4
:1008F0000098241A06EB090086B208EB0B0054445A
:100900001FFA80F87F1CAF42EBDDBDE8F88F00983E
:10091000051B002712E0314640460A9AFFF799FE70
:10092000002D05DB08EB0B00A5EB0A051FFA80F88C
:1009300000987F1C054406EB090086B2A742EADD59
:10094000E3E72DE9F84F1C464EF67D7B87180D46F0
:100950008046BAB20B46CDF800B0FFF79DFF2C449D
:10096000601C7E1E42F6651A83B205F10109B2B21F
:100970001FFA89F1B0B2CDF800A0FFF78DFFA3B246
:10098000BAB2A1B24046CDF800A0FFF785FF4246BB
:10099000A3B229461046CDF800B0FFF77DFF0A98B4
:1009A0000090641E08F10100A3B2B2B21FFA89F1EF
:1009B00080B2FFF771FFA8E72DE9F84F8246CC1807
:1009C0004F1C0AEB02060A98894642F6651B04F1A1
:1009D0000108751E38B3012843D0022895D14FF67F
:1009E000FF7B4B46B2B219465046CDF800B0FFF738
:1009F00053FF1FFA88F3AAB2B9B2A8B2CDF800B07B
:100A0000FFF74AFFCDF800B0A3B2B2B2A1B2504690
:100A1000FFF742FFCDF800B05246A3B24946104658
:100A2000FFF73AFF71E74EF67D704B460090B2B289
:100A300019465046FFF730FF1FFA88F3AAB2B9B241
:100A4000A8B2CDF800B0FFF727FFA3B2B2B2A1B2AF
:100A50005046CDF800B0FFF71FFF4EF67D700090B6
:100A6000DAE74B46B2B219465046CDF800B0FFF770
:100A700013FF4EF67D7000901FFA88F3AAB2B9B248
:100A8000A8B2FFF709FF4EF67D700090BCE72DE994
:100A9000F84F9A4644F20828074693460E460B46FE
:100AA000CDF80080FFF7F8FE751C48F210497C1C59
:100AB000ABB2A9B2A0B25A46CDF80090FFF7ECFE57
:100AC0003A46534631461046CDF80080FFF7E4FE23
:100AD000A2B2A9B2A0B25346CDF80090FFF7DCFE57
:100AE0004FF6FF7453465A46194638460094FFF7AE
:100AF000D3FE5A465346314610460094FFF7CCFECB
:100B000003E72DE9F8431C464FF6FF7807461546E4
:100B10000E460B46CDF80080FFF7BEFE3A46234650
:100B200031461046CDF80080FFF7B6FE601E83B256
:100B300081B248F21048781C80B22A46CDF8008075
:100B4000FFF7AAFE44F2082923462A4619463846EA
:100B5000CDF80090FFF7A0FE681E82B2711C89B22A
:100B600080B22346CDF80080FFF796FE2A46234642
:100B700031461046CDF80090FFF78EFEBDE8F883B1
:100B80002DE9FF4F83B089460446DDF840B0009060
:100B9000A4E080283ED20D2804D0202808D920388F
:100BA00080B206E009F110001FFA80F9009C2EE0E7
:100BB0000020DFF838A300264FF08008019001984C
:100BC000002506EB001700BF1AF8071028FA05F0F9
:100BD000014206D009EB060081B2601980B2059A85
:100BE00009E0DDE90501884207D009EB060081B282
:100BF000601980B2069AFFF72CFD6D1CEDB2082D2E
:100C0000E2D3761CF6B2102ED9D30834A4B20BF17D
:100C1000010B63E04FF00008B54808EB08119BF8A2
:100C2000002010F8113093424DD100EB41000190AB
:100C300041789BF80100814245D100254FF0800AA0
:100C40000198002600EB45072AFA06F0B978014220
:100C500006D009EB050081B2A01980B2059A09E01F
:100C6000DDE90501884207D009EB050081B2A01932
:100C700080B2069AFFF7EDFC761CF6B2082EE3D39D
:100C80000026F9782AFA06F0014207D009EB0500A0
:100C900081B2A019083080B2059A0AE0DDE90501A9
:100CA000884208D009EB050081B2A019083080B253
:100CB000069AFFF7CEFC761CF6B2082EE1D36D1C27
:100CC000EDB2102DBCD308F101001FFA80F8B8F185
:100CD000320FA1D310340BF1020BA4B29BF8000029
:100CE00000287FF456AF07B0BDE8F08F2DE9F84F2C
:100CF0009A46934688460446B2E0802831D220289E
:100D000002D9203880B200E0002000264FF0800990
:100D100000900098002506EB00177448C15D29FA81
:100D200005F0014206D008EB060081B2601980B2DE
:100D30005A4607E0D34507D008EB060081B2601998
:100D400080B25246FFF785FC6D1CEDB2082DE4D34E
:100D5000761CF6B2102EDCD30A98401C08340A9098
:100D60007DE000204FEA000900EB800161480A9A0B
:100D700001EB491110F811301278934265D100EB64
:100D80004100009041780A98407881425DD1002569
:100D90000099002605EB45000F188020B978F04037
:100DA000014206D008EB050081B2A01980B25A4674
:100DB00007E0D34507D008EB050081B2A01980B247
:100DC0005246FFF746FC761CF6B2082EE5D3002605
:100DD000F9788020F040014207D008EB050081B28D
:100DE000A019083080B25A4608E0D34508D008EB75
:100DF000050081B2A019083080B25246FFF729FCE5
:100E0000761CF6B2082EE3D3002639798020F04014
:100E1000014207D008EB050081B2A019103080B262
:100E20005A4608E0D34508D008EB050081B2A01966
:100E3000103080B25246FFF70CFC761CF6B2082E3A
:100E4000E3D36D1CEDB2182DA2D309F1010080B2DD
:100E50008146142888D30A98801C18340A90A4B2BA
:100E60000A98007800287FF448AF4EE52DE9FF4F3F
:100E700081B08A46834620490E98002601EBC010B7
:100E80004FF0800900900098002500EB860800BF15
:100E900018F805705FF0000429FA04F0384208D011
:100EA0000AEB060081B20BEBC500204480B2039A26
:100EB0000BE0DDE90301884209D00AEB060081B2AC
:100EC0000BEBC500204480B2049AFFF7C2FB641C00
:100ED000E4B2082CE0D36D1CEDB2042DD8D3761CFF
:100EE000F6B2202ECFD305B0FEE60000AE1B000800
:100EF00020290008083000089F210008F8B54EF6A8
:100F00007D752846FFF7ADFBCDA000902B461F2234
:100F100002211020FFF734FECDA04FF47846009058
:100F20002B46324614211020FFF72AFE3A23712265
:100F300026210F20FFF7E5FDC9A000902B464FF4B6
:100F4000FC6228211020FFF71BFE58237122442148
:100F50000F20FFF7D6FDC6A000902B461F2246218A
:100F60001020FFF70DFE7623712262210F20FFF77C
:100F7000C8FDC3A000902B46324664211020FFF725
:100F8000FFFDC3A000902B4632468C211020FFF7B6
:100F9000F7FDC14C2B463246607900907D216420DC
:100FA000FFF764FF4FF47A773846FFF798FB207914
:100FB00000902B4632467D216420FFF757FF3846CC
:100FC000FFF78DFBE07800902B4632467D216420B0
:100FD000FFF74CFF3846FFF782FBA07800902B46C6
:100FE00032467D216420FFF741FF3846FFF777FB4B
:100FF000607800902B4632467D216420FFF736FF53
:101000003846FFF76CFB207800902B4632467D2156
:101010006420FFF72BFFF8BD2DE9F8434EF67D75F0
:1010200000242846FFF71DFB9CA04FF47846009053
:101030002B46324614211020FFF7A2FD4FF47A70A0
:10104000FFF74DFB2846FFF70CFBA946B0460325EA
:10105000914F1E26B4FBF5F006EB4011B4FBF5F002
:101060003A1905FB1040527800EB80000092C00056
:101070004B464246FFF7FAFE6420FFF730FB641C44
:10108000E4B20A2CE6D3BDE8F88338B54EF67D7499
:101090002046FFF7E6FA76A0009023461F220A2199
:1010A0001020FFF76DFD4FF47A70FFF718FB204614
:1010B000FFF7D7FA62A04FF47845009023462A46FE
:1010C0001E211020FFF75CFD77A0009023461F2211
:1010D00032211020FFF754FD77A0009023462A46C6
:1010E00046211020FFF74CFD77A0009023461F22D9
:1010F00064210020FFF744FD77A0009023462A4694
:1011000082210020FFF73CFDBDE8384040F2DC5072
:10111000FFF7E5BA2DE9F04101241F20FFF7A1FAFE
:101120004FF49660FFF7DBFA4FF6FF764FF4FA754F
:101130004FF478474FF4FC681DE03046FFF791FA12
:101140002846FFF7CCFA0020FFF78BFA2846FFF776
:10115000C6FA3846FFF785FA2846FFF7C0FA404638
:10116000FFF77FFA2846FFF7BAFA1F20FFF779FA50
:101170002846FFF7B4FA641EE4B2DED2BDE8F0817F
:101180002DE9F84F07464EF67D742046FFF769FAC1
:101190003BA0009023461F220A211020FFF7F0FCFD
:1011A0004FF47A70FFF79BFA2046FFF75AFA0026B1
:1011B0004FF0270B4FF4C86A06EB86004FF6FF711D
:1011C00000250BEBC00901EAC00800BF05EB850054
:1011D0000BEBC0018AB24FF6FF741FFA89F3414648
:1011E00004EAC000FFF71AFA5FF0000407EB4400BE
:1011F00017F81410407841EA0020FFF7CAF8641C81
:101200005445F3DB6D1C062DE0DB761C082ED3DB8A
:10121000BDE8F88F70B5344C10252561FFF76EFEE0
:10122000FFF778FFFFF7F8FEFFF72FFF2F48FFF7D4
:10123000A7FF40F2DC50FFF752FA656170BD000075
:10124000C8ABB6AFB5E7D7D3BCBCCAF50000000049
:10125000D2BABEA7B2E2CAD4B3CCD0F2000000002A
:10126000D1D5C9ABCCEEB3E4B2E2CAD400000000E1
:10127000CEC4D7D6CFD4CABEB2E2CAD400000000D2
:10128000CDBCC6ACCFD4CABEB2E2CAD40000000006
:1012900057656C636F6D6500040000204E756D200E
:1012A0005465737400000000D7A8D7A2D2BABEA7B5
:1012B000C5FAB7A200000000C8ABB3CCBCBCCAF5ED
:1012C000D6A7B3D60000000054656C3A31353938E2
:1012D00039333133353038007777772E7164746560
:1012E00063682E6E657400000010014086350008AA
:1012F00038B50121102000F040FA48F22004ADF882
:10130000004010208DF803000320064D8DF80200E8
:101310006946284600F05FF82146284600F0C9F8E3
:1013200038BD00000010014010B58B4C2215011B88
:101330005300A0422ED00DDC884940181CD09042AA
:1013400021D098423BD10121102000F028FA002141
:1013500010200DE0914224D0994229D0B1F5406F80
:101360002DD101210C02204600F019FA002120465F
:10137000BDE8104000F013BA0121042000F00FFA7C
:1013800000210420F4E70121082000F008FA0021E0
:101390000820EDE70121202000F001FA00212020A3
:1013A000E6E70121402000F0FAF900214020DFE7C4
:1013B0000121802000F0F3F900218020D8E710BD42
:1013C00010B50121084600F0EAF90021BDE81040FF
:1013D000012000F0E4B9F0B5CA78002502F00F034F
:1013E000D20601D58A7813430A784FF00F0E12F017
:1013F000FF0F4FF001021DD0D0F800400F8802FA15
:1014000005F63740B74211D14FEA850C0EFA0CF7BA
:1014100024EA070703FA0CF43C43CF78282F02D0C4
:10142000482F02D002E0466100E006616D1C082DE5
:10143000E4D304600C88FF2C1ED944685FF00006DA
:1014400006F1080702FA07F50F882F40AF420FD1C7
:101450004FEA860C0EFA0CF7BC4303FA0CF73C4338
:10146000CF78282F00D14561CF78482F00D1056172
:10147000761C082EE4D34460F0BD4FF6FF71018066
:10148000022181700421C1707047024600209268D9
:101490000A4200D001207047806880B2704702463F
:1014A0000020D2680A4200D001207047C06880B294
:1014B000704701617047416170470AB1016170472F
:1014C00041617047C160704741F48032826181613F
:1014D0008261816980697047214B10B51A684FF6A7
:1014E0008074224042EA00100843186010BD1D4974
:1014F000C8617047F0B51A4D6A68440D260184B280
:10150000C0F30157B440C0F30343032F05D0C0021A
:101510000AD503209840824307E0686822F0706390
:1015200020F07060686002E0A24342F0706301B195
:1015300023436B60F0BD10B58A0721F0030408490E
:10154000130F21440F228C689A4094438C608A6860
:10155000984002438A6010BD0014014000F8FEBFAD
:101560000000014000002042A348016841F0010151
:1015700001604168A14A114041600168A04A1140E0
:101580000160016821F480210160416821F4FE01BD
:10159000416000218160704797490A6822F48032D7
:1015A0000A600A6822F480220A60B0F5803F07D002
:1015B000B0F5802F03D1086840F4A0200860704780
:1015C000086840F48030F9E70246002053098A4950
:1015D000012B0BD0022B0BD0D1F8241002F01F02EC
:1015E000012393400B4200D0012070470968F5E7C2
:1015F000096AF3E718B500204FF4A0640090312089
:10160000FFF7E2FF0099491C009108B9A142F6D109
:101610003120FFF7D9FF002800D0012018BD7649FE
:101620000A6822F0F80242EAC00008607047754973
:1016300008607047704A5368084323F47C131843CA
:10164000506070476F49086670476B4A516821F0D7
:1016500003010143516070476748406800F00C0087
:101660007047654A516821F0F001014351607047AD
:10167000614A516821F4E0610143516070475E495D
:101680004A6822F4605242EAC000486070475A4AF1
:101690000029517A01D0014300E081435172704723
:1016A0005849C1F8D8007047534A516821F4404165
:1016B0000143516070475049002281F8202081F891
:1016C0002020012802D0042802D1052081F8200022
:1016D00070474D490860704747490A6A02430A62E9
:1016E0007047494944390860704730B542494A68F3
:1016F00012F00C03454A03D0042B01D0082B21D053
:1017000002604A680F23424C03EA1212A35C02688B
:10171000DA4042604B68072505EA1323E35C22FAAE
:1017200003F383604B6805EAD323E35CDA40C260CD
:101730004968032303EA9131231F595CB2FBF1F19D
:10174000016130BD4A68022302F4701203EB924239
:101750004B6813F4803F02D04B689B0301D52D4B9F
:1017600000E02A4B5A43CBE7234A0029516901D0B4
:10177000014300E08143516170471F4A002991698C
:1017800001D0014300E08143916170471A4A00296A
:10179000D16901D0014300E08143D1617047164A0D
:1017A0000029D16801D0014300E08143D160704736
:1017B000114A0029116901D0014300E08143116100
:1017C000704711494039086070470E49C864704736
:1017D0000949C87170470848416A41F08071416207
:1017E0007047054A0146002092680A4200D0012055
:1017F0007047014988727047001002400000FFF8EE
:10180000FFFFF6FE000042428004424200127A00CE
:101810001200002000093D009B4910B5401810D06F
:10182000B0F5806F10D0B0F5784F18D101210C03BE
:101830002046FFF7B4FF2046BDE810400021FFF727
:10184000AEBF01218C0301E00121CC032046FFF74C
:10185000AFFF2046BDE810400021FFF7A9BF10BD33
:1018600030B502884C8802F441530A88CD8822435F
:101870008C882C4322430C8922434C8922438C8937
:101880002243CC8922431A430280828B22F40062D5
:101890008283098A018230BDF0B505460C460220DC
:1018A0000021AA8B85B001264FF240031A40AA837B
:1018B0002884AF8B2289022A25D0A08800B1022675
:1018C0006846FFF712FFE088B0F5007F2CD0218931
:1018D00070014843009901EB81014900B1FBF0F030
:1018E000401D80B20A21B0FBF1F000F00101401A66
:1018F0004FF6FF72C0F34F0002EA0121821EFE2A5A
:1019000001D302200021E288084302432A84208870
:10191000618862890843A18811430843384340F431
:101920000060A88305B0F0BD0098218900EB80001D
:1019300040000902B0FBF1F0D2E7002101804180B4
:101940008180C180018141818181C1810721018222
:1019500070470021018041808180C1800222028184
:10196000418170470029018802D041F0400101E027
:1019700021F04001018070470029818B02D041F4A1
:10198000806101E021F480618183704709090123AE
:101990008B40002A828899B201D00A4300E08A4332
:1019A00082807047002A828801D00A4300E08A437F
:1019B000828070478181704780897047A1F57E429F
:1019C0000188FF3A02D041F4807101E021F4807176
:1019D000018070470029818802D041F0040101E0B4
:1019E00021F0040181807047028822F400620280A5
:1019F00002880A4302807047018841F480510180C7
:101A000070470029018802D041F4005101E021F41F
:101A1000005101807047012901D0008B7047808AF6
:101A20007047008A7047B1F5804F018803D021F4D8
:101A300080410180704741F48041FAE7024600206E
:101A400012890A4200D001207047C94301817047C2
:101A500010B501F00F040122034602FA04F400203D
:101A600009098A4091B29A88A4B20A401989214290
:101A700002D0002A00D0012010BD01F00F02012188
:101A80009140C9430181704700C8FFBF0CB50021D8
:101A9000324801910091026842F4803202604FF4B2
:101AA000A063026802F400320092019A521C019273
:101AB000009A12B9019A9A42F3D10268920333D57F
:101AC0000121009126490A6842F010020A600A6862
:101AD00022F003020A600A6842F002020A604168CA
:101AE000416041684160416841F480614160416802
:101AF00021F47C114160416841F4E81141600168C2
:101B000041F08071016001688901FCD5416821F0D4
:101B100003014160416841F0020141604168C1F345
:101B200081010229FAD10CBD0091FEE70B48016842
:101B300041F00101016041680A4A114041600168B9
:101B4000094A11400160016821F480210160416867
:101B500021F4FE0141600021816097E700100240FE
:101B6000002002400000FFF8FFFFF6FE064C074D84
:101B700006E0E06840F0010394E80700984710345D
:101B8000AC42F6D3FEF7D8FA084200082842000813
:101B900002E008C8121F08C1002AFAD17047704736
:101BA000002001E001C1121F002AFBD17047000094
:101BB0000000000000000000000000000000001015
:101BC0001010101010101010000010100000000075
:101BD0006C6C2424000000000100000000000024C0
:101BE000242424FE48484848FC909090900000101F
:101BF0003C54929050381412129254781000000005
:101C0000225C94A8481010242A5254880000000036
:101C100030484850206E54948C888A74000000002C
:101C20003030101000000000000000000000000430
:101C30000810102020202020201010080400008010
:101C400040202010101010101020204080000000B4
:101C5000000010543810385410000000000000003C
:101C60000010101010FE10101010000000000000F6
:101C70000000000000000000000010102000000024
:101C80000000000000FE0000000000000000000056
:101C90000000000000000000000010100000000024
:101CA000040408081010202040408080000000003C
:101CB000384482828282828282824438000000001C
:101CC00010701010101010101010107C0000000088
:101CD0003844828204081020408284FC0000000006
:101CE00038448202043804020282443800000000B2
:101CF000040C141424244444FE04040E00000000C8
:101D0000FC808080B8C482020282847800000000D7
:101D10003C428280B8C48282828244380000000043
:101D20007E42820404080808101010100000000011
:101D30003844828244384482828244380000000061
:101D4000384482828282463A02824438000000008F
:101D50000000101000000000101000000000000043
:101D60000000101000000000001010200000000013
:101D700000000618608060180600000000000000E7
:101D800000000000FE0000FE000000000000000057
:101D90000000C0300C020C30C00000000000003811
:101DA000448282020408101010001010000000008D
:101DB0003844829AAAAAAAAAAA9680423C000000A5
:101DC00010101028282844447C4444EE00000000F1
:101DD000FC424242427C4242424242FC000000003D
:101DE0003C448280808080808282443800000000F1
:101DF000F844424242424242424244F8000000005B
:101E0000FC444240447C4440404244FC000000000A
:101E1000FC444240447C4440404040F0000000000C
:101E2000344C828080808E8484844C340000000096
:101E3000EE444444447C4444444444EE00000000E6
:101E40007C101010101010101010107C00000000FA
:101E50003E08080808080808088888700000000084
:101E6000EE44484850605048484444EE00000000AA
:101E7000E040404040404040404244FC0000000000
:101E8000C6446C6C6C545454444444EE000000004E
:101E9000CE4464646454544C4C4C44E40000000050
:101EA000384482828282828282824438000000002A
:101EB000F844424242447840404040E00000000084
:101EC000384482828282828282BA443C02000000CC
:101ED000F048444444487048444444E6000000004C
:101EE0003C44828040300C020282447800000000B2
:101EF0007C549210101010101010103800000000C8
:101F0000EE44444444444444444444380000000003
:101F1000EE444444442828282810101000000000F3
:101F2000EE445454545454542828282800000000E7
:101F3000EE44442828101028284444EE00000000F5
:101F4000EE4444282828101010101038000000001B
:101F50007E44840808102020408284FC0000001C7D
:101F60001010101010101010101010101C00000095
:101F7000EE445454FE54545428282828000000707D
:101F800010101010101010101010101070000030F1
:101F90004884000000000000000000000000000075
:101FA000000000000000000000000000FE000040F3
:101FB0002000000000000000000000000000000001
:101FC000000000007884047C84848C76000000008B
:101FD000C040404058644242424264580000000001
:101FE00000000000384480808080443800000000F9
:101FF0000C040404344C848484844C3600000000B7
:1020000000000000788484FC808084780000000058
:1020100018242020F820202020202070000000001C
:10202000000000003A444478807C82827C000000FA
:10203000C040404058644444444444EE0000000022
:1020400010100000301010101010103800000000A8
:1020500010100000301010101010109060000000E0
:10206000C04040405C485060504844EE00000000D2
:102070003010101010111010101010390000000056
:1020800000000000ACD29292929292D60000000022
:102090000000000058E44444444444EE00000000C2
:1020A0000000000038448282828244380000000030
:1020B00000000000D864424242645840E000000042
:1020C00000000000364C8484844C34040E00000070
:1020D000000000006C302020202020700000000054
:1020E00000000000788884601884447800000000B4
:1020F00000202020F82020202020241800000000AC
:1021000000000000C64242424242463A000000003F
:1021100000000000EE4444282828101000000000B1
:1021200000000000EE444454542828280000000019
:1021300000000000EE442810102844EE00000000CB
:1021400000000000EE444428281010A0C000000049
:10215000000000007E448810204284FC0000000C37
:102160001010101010601010101010100C00001043
:10217000101010101010101010101010100000C0CF
:10218000202020202018202020202020C000000017
:102190000000000000728C00000000000000000041
:1021A000000000001FE000003FF000003FF00000D2
:1021B0001FE0000180060003C00F0003C00F0003F2
:1021C000C00F0003C00F0003C00F0003C00F0003C7
:1021D000C00F0003C00F0003000300000000000058
:1021E000000000000000000300030003C00F000314
:1021F000C00F0003C00F0003C00F0003C00F000397
:10220000C00F0003C00F0003C00F000180060000D4
:102210001FE000003FF000003FF000001FE0000062
:1022200000000000000000000080000001800000AD
:102230000380000007800000078000000780000086
:102240000780000007800000078000000780000072
:1022500007800000078000000180000000000000EF
:102260000000000000000000018000000780000066
:102270000780000007800000078000000780000042
:102280000780000007800000078000000780000032
:1022900003800000018000000080000000000000BA
:1022A000000000001FE000003FF00000FFF0000110
:1022B000FFE0000000060000000F0000000F00001B
:1022C000000F0000000F0000000F0000000F0000D2
:1022D000000F0000000F00001FE300007FF8000067
:1022E0007FF800001FE0000300000003C0000003AF
:1022F000C0000003C0000003C0000003C0000003D2
:10230000C0000003C0000003C00000018000000006
:102310001FF000003FF800003FFC00001FFE00001F
:1023200000000003FF800001FFC00000FFC00000AC
:102330007F80000000180000003C0000003C00000E
:10234000003C0000003C0000003C0000003C00009D
:10235000003C0000003C00007F8C0001FFE0000119
:10236000FFF000007F800000000C0000003C000037
:10237000003C0000003C0000003C0000003C00006D
:10238000003C0000003C0000003C00000018000081
:102390007F800000FFC00001FFC00003FF8000003D
:1023A0000000000000000002000100030003000321
:1023B00080070003C00F0003C00F0003C00F00031D
:1023C000C00F0003C00F0003C00F0003C00F0003C5
:1023D000C00F0003C00F00031FE300007FF80000E0
:1023E0007FFC00001FE0000000030000000F000061
:1023F000000F0000000F0000000F0000000F0000A1
:10240000000F0000000F0000000F0000000F000090
:1024100000070000000300000001000000000000B1
:10242000000000001FFC00003FF800003FF000002B
:102430001FE0000180000003C0000003C000000393
:10244000C0000003C0000003C0000003C000000380
:10245000C0000003C00000031FE000007FF8000080
:102460007FF800001FE0000000030000000F0000E4
:10247000000F0000000F0000000F0000000F000020
:10248000000F0000000F0000000F00000006000019
:102490003FE000007FF00000FFF00001FFE00000DF
:1024A000000000001FFC00003FF800003FF00000AB
:1024B0001FE0000180000003C0000003C000000313
:1024C000C0000003C0000003C0000003C000000300
:1024D000C0000003C00000031FE000007FF8000000
:1024E0007FFC00001FE0000300030003C00F000397
:1024F000C00F0003C00F0003C00F0003C00F000394
:10250000C00F0003C00F0003C00F000180060000D1
:102510001FE000003FF000003FF000001FE000005F
:1025200000000007FFE00003FFC00001FF8800007B
:10253000FF1800000038000000780000007800005C
:1025400000780000007800000078000000780000AB
:102550000078000000780000001800000000000073
:1025600000000000000000000018000000780000DB
:10257000007800000078000000780000007800007B
:10258000007800000078000000780000007800006B
:1025900000380000001800000008000000000000E3
:1025A000000000001FE000003FF000003FF00000CE
:1025B0001FE0000180060003C00F0003C00F0003EE
:1025C000C00F0003C00F0003C00F0003C00F0003C3
:1025D000C00F0003C00F00031FE300007FF80000DE
:1025E0007FFC00001FE0000300030003C00F000396
:1025F000C00F0003C00F0003C00F0003C00F000393
:10260000C00F0003C00F0003C00F000180060000D0
:102610001FE000003FF000003FF000001FE000005E
:10262000000000001FE000003FF000003FF000004D
:102630001FE0000180060003C00F0003C00F00036D
:10264000C00F0003C00F0003C00F0003C00F000342
:10265000C00F0003C00F00031FE300007FF800005D
:102660007FFC00001FE0000000030000000F0000DE
:10267000000F0000000F0000000F0000000F00001E
:10268000000F0000000F0000000F00000006000017
:102690001FE000003FF000007FF00000FFE00000BE
:1026A000000000000000000000000000000000002A
:1026B000000000000000000000000000000000001A
:1026C000000000000000000000000000000000000A
:1026D00000000000000000000000000000000000FA
:1026E00000000000000000000000000000000000EA
:1026F0000000000078000000780000007800000072
:102700007800000078000000780000000000000061
:1027100000000000000000000000000000000000B9
:1027200000000000000000000000000000000000A9
:102730000000000000000000000000000000000099
:10274000070000000F8000000F8000000F800000D5
:102750000700000000000000000000000000000072
:102760000000000000000000000000000700000062
:102770000F8000000F8000000F80000007000000A5
:102780000000000000000000000000000000000049
:102790000000000000000000000000000000000039
:1027A0000000000000000000000000000000000722
:1027B000C006000FE0060000000C003018180030C2
:1027C0001818003018300030183000301860003011
:1027D00008C00007C0C0000FE0800000000000003B
:1027E000000FE0000607C000063018000C3018008B
:1027F0000C30180018301800303018003030180035
:1028000060000000C00FE000C007C0000000000032
:1028100000000000000000000000000000000000B8
:1028200000000000000000000000000000000000A8
:10283000000000000000000700E0000887FC00081E
:102840008E03000898018007180080003000000007
:102850003000000070000000600000006000000018
:1028600060000000600000006000000070000000D8
:1028700030000000300000003800000018010000A7
:102880000C03000007FC000001F000000000000045
:102890000000000000000000000000000000000038
:1028A0000000000000000000000000000000000028
:1028B0000000000000000000000000000000000018
:1028C0000000000000000000000000000000000008
:1028D0000000000000000000000000003FF00000C9
:1028E0007FF000007FE00000FFC00000000000005B
:1028F00000000000000000000000000000000000D8
:1029000000000000000000000000000000000000C7
:1029100000000000000000000000000000000000B7
:10292000B5E70200020002007FF0421042107FF083
:10293000421042107FF042000208020801F8000035
:102940000000D7D37FF0002000400080010002008B
:10295000FFF80200020002000200020002000E0066
:1029600000000000C8AB0100010002800440082004
:1029700010102FE8C106010001001FF00100010046
:1029800001007FFC0000B6AF004000407C400040EA
:1029900001FC0044FE4420442044208448844484B4
:1029A000FD04450402280410BCBC10201020102097
:1029B00013FEFC201020102015FC18843088D0480D
:1029C00010501020105051882606CAF50100012031
:1029D000011001107FFC0380054005400920111003
:1029E000210841040102010001000100D2BA008067
:1029F000404027F8114001408278424816A81AD07A
:102A00002350222042204250028800000000BEA72E
:102A10003FE020203FE020203FE00000FDF8850857
:102A20008508FDF885088508FDF885080000000088
:102A3000B2E200084F8828880AA88AA84AA80AA8EB
:102A40002AA82AA8422845088488888810380000C7
:102A50000000CAD44050204820400FF80040E04019
:102A600027402240224022202A2833A82E1800087E
:102A700000000000B3CC00001BF0E210221023F095
:102A8000F800200033F068806080A3F02080208070
:102A900027F800000000D0F2020001003FF82000FB
:102AA0002FF02020224021803FF820882090408075
:102AB0004080838000000000D1D5200010F87E20E7
:102AC000444028F87E8848A850A864A848A872A85E
:102AD00084501888610800000000C9AB1000100085
:102AE0003FE0404080807FF04210421042107FF073
:102AF0004000400840083FF800000000CCEE208075
:102B00002FF8208027F0F41027F0241027F024104D
:102B100027F03410CFF80220041000000000B3E4C6
:102B200004000200FFF80800104020207FF0089009
:102B300008800880088010882088C0780000000085
:102B4000CEC4040002000200FFF8104010400880CC
:102B5000088005000200050008803060C0180000F1
:102B60000000D7D604000200FFF8800880083FC0AC
:102B7000008001000200FFF80200020002000E00C7
:102B800000000000CFD43FE0202020203FE02020A4
:102B900020203FE008804890289028A008800880E6
:102BA000FFF800000000CABE00003FE00000000087
:102BB0000000FFF802001240122022104208820892
:102BC00002000E0000000000CDBC7FF84008440861
:102BD00047C84848548843084CC8733840884C0854
:102BE000430840887FF800000000C6AC00802080C9
:102BF000208020803FF02000200020003FC02040A7
:102C0000204020404040804000000000B4A520400B
:102C10003840484091F07D50555055507D5055F00A
:102C200054407C40545057F88C0800000000C3FE0C
:102C30002220222027F8FA2027F0241027F0341031
:102C4000E7F020802FF821402220EC18000000003F
:102C5000CAE440804140F22044108BE8A000F7888D
:102C600024A827A834A8E7A824A8248825B8000009
:102C70000000C8EB08000400040002000200050088
:102C80000500088008801040104020204010800877
:102C900000000000C8AB02000200050008801040E0
:102CA0002020DFD8020002001FC002000200020044
:102CB000FFF800000000B3CC00001BF0E21022106F
:102CC00023F0F800200033F068806080A3F02080BB
:102CD000208027F800000000BCBC208020802080DD
:102CE000F7F02080208027E03220E2202140208061
:102CF00021402220EC1800000000CAF5020002402A
:102D000002200200FFF807000A800A8012402220F9
:102D1000421082080200020000000000D6A7020054
:102D20000200FFF8020002007FE01020104008803F
:102D300005000200050018C0E03800000000B3D60E
:102D40002080208023F0F880208027F82820302061
:102D5000E7F82020222021202020E0E000000000D1
:102D6000D7A8020002007FF004000400FFF808006A
:102D700010003FE0002000401C80030000800000A5
:102D80000000D7A201004080200017F00080808062
:102D90004080008017F010802080208040804FF815
:102DA00000000000C5FA204024402440F44824508C
:102DB000276024403440E4402440244025482648ED
:102DC000E43800000000B7A20200222022104400D4
:102DD0007FF8040008000FE01420244042808100A6
:102DE00006C0383800000000B3C900A00090008081
:102DF0007FF8408040907C90449044A044A0444898
:102E000058A84118820800000000B9A6010001007E
:102E1000F90023F021102110211021102110391068
:102E2000C21002100410086000000000D2C60000AA
:102E3000002000780CE47904516810307E60199805
:102E40001A3C2FE448E40838003000600000D1A1AB
:102E500000000120012003FC62203420042003FC38
:102E6000240021B021202220323E18000FE0000073
:102E7000D4F10000000010FC1304110C3DF8703E6A
:102E800010D015907CF0503E18101BFE0230002030
:102E90000000CFEE0000000003FE00607C4012FC4A
:102EA00011041106113611241F44794400C0009CFE
:102EB00001860000C4BF000000000FE03C1820089D
:102EC00020043E04600460047E046004200C20089A
:102ED0001FF001800000B6CC0000080011FC103E7D
:102EE0003EF82D8C2904490409043E8C50FC1088BE
:102EF0001EC811FC100E0000B0B4000000400060BD
:102F000012FE13023A427F4410C41BFE3C9871909B
:102F1000113011A00078004C0000C8B7000000403C
:102F200000F878C41F8C313821EC2126413A7DE22B
:102F3000272225FA3D26012401040000B6A800003E
:102F4000010001705FFC700420042FF801001100E3
:102F5000113821C431003F0063E040380000B3A4C1
:102F6000000000000818086008C00B001E00181CB4
:102F70007FF01000118010E01838098E0F0000005B
:102F8000B0B400000040006012FE13023A427F44D9
:102F900010C41BFE3C987190113011A00078004CB9
:102FA0000000B7B50000000007F80600240014F880
:102FB000078C04042408261825F0647C64C2208051
:102FC0001FC00000BBD8000000001FF03018200810
:102FD000278C2C44284428442CC427842004300CFB
:102FE0001FF8038000000000000000000000000047
:102FF00000000000000000000000000000000000D1
:103000000000000000000000B4BF0000000000004D
:10301000020100063FC00C3FE0180300100200331D
:1030200036603726203E66301C643018642031FE3E
:10303000E03F1FC01C0C00000C000704003E07F01E
:103040000001C000000000000000000000000000BF
:103050000000C9AB00000000000001FE0003E30017
:103060000703000C03001C3F003BFFC03F30600C17
:1030700030200C30200C10200C10600FFFC0083FD7
:10308000000800000800600E3FE007FC00000000A0
:10309000000000000000000000000000CCEE000076
:1030A0000000000000030000FFE00C07F00C060029
:1030B0000CFF803FF0E01FC0600CFE300CCC3004F1
:1030C000F83004FF2004C0201FFE603EC06001FFF6
:1030D000F001FFF000606000400000000000000010
:1030E000000000000000B3E4000000000000002029
:1030F0000000300007FFF03FFFE003000006018002
:103100000C01800801C01807E00FFE7007E0000204
:1031100006000604000404000404000C06700C07FA
:10312000E0000000000000000000000000000000BF
:10313000B2E200000000000000003039FC301FCC7B
:10314000300706B00F06F01907B03137B03136F04E
:103150001F27F00167F001E5F001E1F00041F00CFC
:10316000F8B03CD830008C30008030000000000007
:1031700000000000000000000000CAD400000000B1
:1031800000000803600C03700C0330003FE0003FB8
:10319000800801003C0180047F80047D800C008059
:1031A0000C10C00C10C00C18400C1C600F7E600688
:1031B000703000003000000000000000000000003F
:1031C00000000000CEC400000000C00000E00000CD
:1031D000700001FFE01FFFC018010000030000069F
:1031E00000000E00001C000E180007300001E00077
:1031F00000F00000FC00018F000303C00201E000AA
:103200000000000000000000000000000000D7D611
:10321000000000000000002000003F0031FFE03F00
:10322000C02038003030FE2033C660100200000C91
:1032300000001800001800000C0007FFE03FFFE04E
:10324000000400000C00000C000000000000000062
:103250000000000000000000CFD4000000000000CB
:1032600007FF000F03C00C00401FF8601800600843
:1032700000400E01C007FF0000000001840001842F
:10328000001987800F8CE0078C2000CC0003FFE042
:103290001FFFC00000000000000000000000000050
:1032A0000000CABE0000000000000E00001FFFC0AA
:1032B000007FE000000000000000000000000000AF
:1032C0003FC03FFFE0003000003000003000061338
:1032D000000C13C00C18F01818001818000000009B
:1032E000000000000000000000000000CDBC000055
:1032F0000000000007FF000F03801CC0C019FC6025
:1033000011C66033062033E63036FF30301FF03010
:10331000703030FC30339F3036002010E060187C75
:10332000400E01C003FF0000380000000000000054
:10333000000000000000C6AC0000000000000818FB
:1033400000180800180800180800180C201FFFF0CB
:103350001FF80018000010000010F8001FFE001EEB
:1033600003001003001003001003001003001802F4
:10337000000000000000000000000000000000004D
:10338000CFD400000000000007FF000F03C00C00B6
:10339000401FF8601800600800400E01C007FF00E1
:1033A0000000000184000184001987800F8CE00771
:1033B0008C2000CC0003FFE01FFFC00000000000D5
:1033C00000000000000000000000CABE0000000075
:1033D00000000E00001FFFC0007FE00000000000A2
:1033E00000000000000000003FC03FFFE000300090
:1033F0000030000030000613000C13C00C18F01849
:103400001800181800000000000000000000000074
:1034100000000000B4A50000000000000601800FBD
:10342000C1801E6180304FC020CFE0078D303FC982
:10343000303379303379303FFB3037FF203267E06B
:103440003FE3803FE3C03263603267F0304FB0004B
:103450000000000000000000000000000000C3FEAB
:103460000000000000000030C000FFF00C79C00C2C
:103470001F800C7FE03FE0600CC0300CFC3004C0CB
:103480003007C0301E60603C3FC0041C00047FE079
:1034900000FFE00030C0006060000000000000009D
:1034A0000000000000000000CAE40000000000006E
:1034B0000C03800C0FC0081C703F70001F9FC010D1
:1034C0001FC0100000367C3017E6301FE3B0067FC7
:1034D000B00277F007E3F03F7FF01336F0032630B9
:1034E0000326300000000000000000000000000083
:1034F0000000C8EB00000000000006000003800090
:1035000001C00000E00000700000780000CC000066
:10351000C6000183000301800700C00600E00C0024
:10352000701800301800003000000000000000009B
:10353000000000000000000000000000000000008B
:10354000000000000000000000000000000000007B
:10355000000000000000000000000000000000006B
:10356000000000000000000000000000000000005B
:10357000000000000000000000000000000000004B
:10358000000000000000FFFFFFFFFFFFFFFFFFFF45
:10359000FFFFFFFFFFFFFFFFFFFFFFFFFFFFFFFF3B
:1035A000FFFFFFFFBEF7FFFFDEFF38C6928C8E6B7A
:1035B0006E6B107C96AD3CE7FFFFFFFFFFFFFFFF48
:1035C000FFFFFFFFFFFFFFFFFFFFFFFFFFFFFFFF0B
:1035D000FFFFFFFFFFFFFFFFFFFFFFFFFFFFFFFFFB
:1035E000FFFFFFFFFFFFFFFFFFFFFFFFFFFFFFFFEB
:1035F000FFFFFFFF5DEF159D4F636C420A32882984
:10360000461925194521E8318E6B38C6FFFFFFFFAB
:10361000FFFFFFFFFFFFFFFFFFFFFFFFFFFFFFFFBA
:10362000FFFFFFFFFFFFFFFFFFFFFFFFFFFFFFFFAA
:10363000FFFFFFFFFFFFFFFFFFFFFFFFFFFFFFFF9A
:10364000FFFF36A51053104B51530F4B6C3AE93125
:1036500067212519E410A30862008308CB529AD68B
:10366000FFFFFFFFFFFFFFFFFFFFFFFFFFFFFFFF6A
:10367000FFFFFFFFFFFFFFFFFFFFFFFFFFFFFFFF5A
:10368000FFFFFFFFFFFFFFFFFFFFFFFFFFFF3CE725
:103690007063B363B87CF56311434D32EA29882126
:1036A00026190519051904110411E4108300A30853
:1036B000728CFFFFFFFFFFFFFFFFFFFFFFFFFFFF1A
:1036C000FFFFFFFFFFFFFFFFFFFFFFFFFFFFFFFF0A
:1036D000FFFFFFFFFFFFFFFFFFFFFFFFDBDE4B3AB8
:1036E000F042356C544BB1322E2AEB21A9216719D7
:1036F0000519041104110411041104110519E41031
:103700004200AF73FFFFFFFFFFFFFFFFFFFFFFFF61
:10371000FFFFFFFFFFFFFFFFFFFFFFFFFFFFFFFFB9
:10372000FFFFFFFFFFFFFFFFFFFF5DEF09324C329E
:10373000104B8F324F2A2E2ACC198919892147190B
:10374000051904110411C410C4100411041104114A
:10375000E41042003184FFFFFFFFFFFFFFFFFFFF88
:10376000FFFFFFFFFFFFFFFFFFFFFFFFFFFFFFFF69
:10377000FFFFFFFFFFFFFFFFFFFFEC5247194C3237
:103780000B2AEC21EC210C22915BEE4A0611261942
:103790000419E410E410A7296621A30805190411EF
:1037A0000411E4108200F7BDFFFFFFFFFFFFFFFFE2
:1037B000FFFFFFFFFFFFFFFFFFFFFFFFFFFFFFFF19
:1037C000FFFFFFFFFFFFFFFF35A58308882188214A
:1037D0008921AA218A216B42718CFFFF728C830898
:1037E0000411C4082942FBDE5DEFEC5A8308041182
:1037F000041104118308E831DFFFFFFFFFFFFFFF23
:10380000FFFFFFFFFFFFFFFFFFFFFFFFFFFFFFFFC8
:10381000FFFFFFFFFFFFBEF7C731C41025192619B0
:1038200047194719A8298A52284A55ADFFFFE831A0
:10383000A30805194D6B4D6BFFFF7DEF4521C410AB
:10384000041104110411620076ADFFFFFFFFFFFFBA
:10385000FFFFFFFFFFFFFFFFFFFFFFFFFFFFFFFF78
:10386000FFFFFFFFFFFF96B5620004110419051169
:103870000519C4088B4AB6B55DEFF7BDFFFF8E6B27
:1038800062002942AA5A0842FFFFFFFFCC52830878
:10389000041104110411A308AD52FFFFFFFFFFFF45
:1038A000FFFFFFFFFFFFFFFFFFFFFFFF1CE7FFFF23
:1038B000FFFFFFFFFFFF4E636200041104110411BC
:1038C000E41062008E63FFFFFFFFFFFFFFFFCF7377
:1038D0000100F39C2C6396B5FFFFFFFF2D5B830077
:1038E000041104110411E41067213DEFFFFFFFFFF5
:1038F000FFFFFFFFFFFFF8BDB7B59EEFCB52B394BC
:10390000FFFFFFFFDFFFE831A308041104110411DA
:103910000411A3084942FFF7FFF7FFFFFFFF6A4AC0
:1039200001007284FFFFFFFFFFF7DFEF093AA308F2
:103930000411041104110411051118BEFFFFFFFF4B
:10394000FFFFFFFFFFFFF07B6200E831C73141005E
:1039500035A5FFFF5DEF4621C410041104110411C9
:103960000411E410A308769DFFF7FFFFB7ADA3088D
:10397000A308C7319EE7FFF7FFF776A5A308E41079
:103980000411041104110511051135A5FFFFFFFFF6
:10399000FFFFFFFFFFFFDBDEA7298300C410C41079
:1039A000C4101CE79EEF0511E4100411041104116A
:1039B00004110419C408E510D16BD16BC50864006B
:1039C000A50843002B32779DB3842519C410041138
:1039D00004110411041125192609359DFFFFFFFF6D
:1039E000FFFFFFFFFFFFFFFFAF7362000419051920
:1039F00082000D5B8E9B62100511041104110419E5
:103A0000E41085000511C439815A407B229C43ACE7
:103A100003A4839B82728249C218A400C500E410EB
:103A200004190411051947196711EC5ABEFFFFFF6D
:103A3000FFFFFFFFFFFFDFFFDBDEC410E410041118
:103A40000511A41801C08388E40005190419C508EC
:103A50004421438323D542FEE4FE27FF07FFA4FE53
:103A600064FE03FEA3FDE2FC42EC83B32462E51096
:103A7000C40804192619A81987210090D3BCFFFF98
:103A8000FFFFFFFFFFFFDFFFFFFF107C4200051974
:103A90000511832801D044F8A348E400C508445A1E
:103AA00002EDE2FD02FE66FE74FFB8FF73FFE7F66B
:103AB000A6F645F6A4F5C3FC62FCC2FCC2FCE3CB4F
:103AC000C449061188198701A49001F8EC9AFFFFF8
:103AD000FFFFFFFFFFFFFFFFFFFFBEF7E83183009F
:103AE0000509824001C023F885F0A348A400445A88
:103AF00002FD23CCC2DC04FE28FE48F646F624F67E
:103B0000E4F564FDE3FC62FCC2FC02E402DCE2FCDE
:103B1000A47A48016701C47824F802F884B07DE7EC
:103B2000FFFFFFFFFFFFFFFFFFFFFFFFDBDE2519AA
:103B3000A300C43802E022D844F8A6F8A4786300B1
:103B4000432183728339829B21F561FD22FDE2FCD2
:103B5000A2FC42FC42FC42FC22AB8341C3920452D1
:103B600026012519A49844F823F802F8A4D09EEF62
:103B7000FFFFFFFFFFFFFFFFFFFFFFFFFFFF9AD6E3
:103B80008729A50043B822F823E065F8E8F807C9BB
:103B900083484200A30084006329A27A62B3A2CBC7
:103BA00062D302BB828A8339A400E500E500E50800
:103BB000C46064D844F824F823F802F88388DBC68C
:103BC000FFFFFFFFFFFFFFFFFFFFFFFFFFFFFFFF05
:103BD0003DE7505B083123E843F844F065F809F904
:103BE000ABF989D10689A34842180200420061005E
:103BF0008200620062008300A320C450A58885D89B
:103C000065F844F844F823F823F803D08210C72954
:103C10005DEFFFFFFFFFFFFFFFFFFFFFFFFFFFFF66
:103C2000FFFFFFFF6C32A53802D823F865F866F86D
:103C3000A7F84AF90CFA4DFA4CEA0BD2A9B968B1C7
:103C400047A927B107B907D1E7E8C7F8A7F865F88A
:103C500065F844F823F803F802D0A3280509C4083E
:103C6000EC5AFFFFFFFFFFFFFFFFFFFFFFFFFFFF1C
:103C7000FFFFFBDE0519C400A741E6C003F886F884
:103C8000A7F887F886F8C7F829F98AF9ABF9ABF9EC
:103C90008BF96AF929F908F9C7F8A6F886F865F8E2
:103CA00064F823F802F006B12529E400E410251990
:103CB0002519149DFFFFFFFFFFFFFFFFFFFFFFFF21
:103CC000FFFF96AD620082083595BACE8BA244D034
:103CD00025F887F8A7F8C7F8A7F887F886F886F8D0
:103CE00086F887F8A7F8A7F8A6F885F865F864F8C5
:103CF00024F064B80D93BBB6CF6383080411E410BD
:103D00006621493A5DEFFFFFFFFFFFFFFFFFFFFF67
:103D1000FFFFD3944200E410BBCEFFFFBEE776B5B1
:103D2000CCAA07C145E045F846F866F886F886F85B
:103D300086F886F865F845F865F865E844D043A844
:103D4000018882903CD7FFEF559583080411041138
:103D500005194619B394FFFFFFFFFFFFFFFFFFFFA9
:103D6000FFFFB394410086215DDFFFFFFFFFFFFFF0
:103D7000DFE77AC6D3B44EB32AC268D1E6E0A6E83C
:103D8000A5E8A5E8E6D888C906A922A802A800A047
:103D900000C800D8F7E5FFE7F8ADC410E41004113F
:103DA000E41005118B4AFFFFFFFFFFFFFFFFFFFF3E
:103DB000FFFF55A54100A7295DDFFFF7FFFFFFFFCC
:103DC000FFFFFFFFFFFFFFEF7DDFDBCE59CEF8CD1A
:103DD000D7CDF7C579CEFBBEABA203F045F842D0F4
:103DE00043E800F072D4FFDF39AEE410E4100411B0
:103DF000E41005118729FFFFFFFFFFFFFFFFFFFF13
:103E0000FFFF59CE830846211CD7FFF7FFFFFFFFB6
:103E1000FFFFFFFFFFFFFFFFFFFFFFFFFFFFFFFFB2
:103E2000FFFFFFFFFFFFFFEF8BBA04F845F862E0EA
:103E300044F000F88EDBFFDFF8A5C410E410E410B6
:103E40000411E4102519FFFFFFFFFFFFFFFFFFFF35
:103E5000FFFFBEF78729830839B6FFF7DFF7FFFFBB
:103E6000FFFFFFFFFFFFFFFFFFFFFFFFFFFFFFFF62
:103E7000FFFFFFFFFFFFBEE74ABA03F845F864F80B
:103E800044F800F86EE3FFD7F48C83080411E410C3
:103E9000E410E4100519FFFFFFFFFFFFFFFFFFFF26
:103EA000FFFFFFFFEF7300007284FFEFBEEFDFFF45
:103EB000FFFFFFFFFFFFFFFFFFFFFFFFFFFFFFFF12
:103EC000FFFFFFFFFFFFDFE78BBA03F845F845F878
:103ED00023F800F8D3D4FFD74E5B2100293A55A52B
:103EE0008308C4102519FFFFFFFFFFFFFFFFFFFF3F
:103EF000FFFFFFFFFBDEA308E8319EDF9EE7BFEF79
:103F0000FFFFFFFFFFFFFFFFFFFFFFFFFFFFFFFFC1
:103F1000FFFFFFFFFFFFFFF751BC02E003F803F0D4
:103F200043E0ECC27ECFFCBE46212100D394FFFFCC
:103F3000518400008729FFFFFFFFFFFFFFFFFFFF06
:103F4000FFFFFFFFFFFF51840000F48CFFEF9EE7AF
:103F5000BFEFDFFFFFFFFFFFFFFFFFFFFFFFFFFFE1
:103F6000FFFFFFFFFFFFFFFF3DDF55BD52BC72BCEF
:103F7000B7B55DC7FFDFF06B0000093ABFF7FFFF81
:103F8000FFFF149D55A5FFFFFFFFFFFFFFFFFFFF92
:103F9000FFFFFFFFFFFFFFFFAC4AA408BBBEDFE748
:103FA0007EE7BEEFDFF7DFFFFFFFFFFFFFFFFFFF53
:103FB000FFFFFFFFFFFFDFFFDFF7FFEFDFDFBFD711
:103FC0009ED7DFDFD8A583082611DBD6FFFFFFFFD2
:103FD000FFFFFFFFFFFFFFFFFFFFFFFFFFFFFFFFF1
:103FE000FFFFFFFFFFFF79EE8BDC2131A9213DCFE1
:103FF000BFDF7EDF9EE7BEEFBFEFDFF7DFF7DFF764
:10400000DFF7DFF7BFEFBEEF9EE77EDF5ED75ED75D
:10401000DFDF9AB626194208EDA3BFFFFFFFFFFFBF
:10402000FFFFFFFFFFFFFFFFFFFFFFFFFFFFFFFFA0
:10403000FFFFFFFF74DDC0DB00FE42EE024289217C
:104040007BB6DFDF7ED77EDF7EDF9EE79EE79EE7E3
:104050009EE79EE77EDF7EDF5DD75DD79EDFFFE7D1
:10406000F8A50711E31802C560FDE6D3DBEEFFFFFC
:10407000FFFFFFFFFFFFFFFFFFFFFFFFFFFFFFFF50
:10408000FFFF9EF784BAC1FC42FE82FEA2FE81833E
:10409000452174745EC7DFDF7ED75ED75DD75ED7FC
:1040A0005ED75DD75DD75ED79EDFFFE73DC7F16383
:1040B0008408425226E629FF86FEE0F36AC3FFFF2A
:1040C000FFFFFFFFFFFFFFFFFFFFFFFFFFFFFFFF00
:1040D000FFFF18DEC1D2A2FD22FE42FE42FE62FEBA
:1040E000E2D4416A494253743BA63EC7BFD7BFD70B
:1040F000BFD7BFDFBFD73EC71AA6F263A729824149
:1041000022B462FE83FEAAFE0FFF67FD63BA3CEF96
:10411000FFFFFFFFFFFFFFFFFFFFFFFFFFFFFFFFAF
:10412000FFFF9AE680D221FDC2FDE2F5C2F582F5DD
:1041300082FD62FD61DC219B846AE96A2C63AF63C6
:1041400011746E632C63895A0452817AC2CBE2FCEB
:1041500062FD82FDC2FDC2FDE4FD24FD62CA1CE7D2
:10416000FFFFFFFFFFFFFFFFFFFFFFFFFFFFFFFF5F
:10417000FFFFFFFFB1CC81D2C0F3C1FC02FD02FD05
:10418000E2FCC2FCC2FC81FC80FBC0C9A48135AD4D
:1041900059CE719C218100DAA1FB82FCA2FC82FC39
:1041A000A2FC02FD22FDE2FC00FC60DA90CCFFFFE5
:1041B000FFFFFFFFFFFFFFFFFFFFFFFFFFFFFFFF0F
:1041C000FFFFFFFFFFFF59DE0DC406CBE4D203DB88
:1041D00003DBE3DAC3D2A4C209B3D2BC9EF7FFFF6C
:1041E000FFFFFFFFFBE60EB4A6BA83D2E3E202EBC9
:1041F00022EB22E303DBE4D26AC3B6D5FFFFFFFF65
:10420000FFFFFFFFFFFF0000284200080000002022
:1042100024000000901B00084C42000824000020ED
:1042200004020000A01B00080000000000010203BF
:104230000405060708090204060800000000010240
:0C42400003040102030406070809000043
:0400000508000131BD
:00000001FF
